:0E1EE4000102040800010202030304040505C4
:10063900E4F513F512F511F510C25EC23DC256C2BA
:10064900411208277E0F7FF68E3D8F3E7545107546
:100659004608753B10753C1275431075443A754A46
:1006690010754B6290E680E030E70E853B3F853C94
:1006790040854341854442800C85433F85444085FC
:100689003B41853C42EE54E070030207AA75140011
:100699007515807E0F7FF68E168F17C374909FFF96
:1006A90074109ECF2402CF3400FEE48F0F8E0EF516
:1006B9000DF50CF50BF50AF509F508AF0FAE0EAD02
:1006C9000DAC0CAB0BAA0AA909A808C3121C5F50F0
:1006D9002AE515250BF582E514350AF58374CDF065
:1006E900E4FAF9F8E50B2401F50BEA350AF50AE90C
:1006F9003509F509E83508F50880C0E4F50BF50A70
:10070900F509F508AF0FAE0EAD0DAC0CAB0BAA0A8F
:10071900A909A808C3121C5F5035AE0AAF0BE5172B
:100729002FF582E5163EF583E0FDE5152FF582E507
:10073900143EF583EDF0E4FAF9F8EF2401F50BEA3C
:100749003EF50AE93509F509E83508F50880B58562
:10075900143D85153E74F62480FF740F34FFFEC3E3
:10076900E5469FF546E5459EF545C3E5409FF540BD
:10077900E53F9EF53FC3E5429FF542E5419EF541C0
:10078900C3E53C9FF53CE53B9EF53BC3E5449FF53E
:1007990044E5439EF543C3E54B9FF54BE54A9EF57A
:1007A9004AD2E843D82090E668E04409F090E65C34
:1007B900E0443DF090E65EE04408F0D2AF12096FE4
:1007C90090E680E020E105D25F1219FF90E680E013
:1007D90054F7F0538EF8C25E30410512037FC241CF
:1007E900305E29121F375024C25E12000E203D16BA
:1007F90090E682E030E704E020E1EF90E682E03025
:10080900E604E020E0E4121A2E121F39120D4412F8
:0D0819000D44120D44120D44120D4480BB1D
:0108260022AF
:10037F0090E6B9E0700302047B1470030205242495
:10038F00FE70030205B924FB700302047514700399
:10039F0002046F14700302046314700302046924CF
:1003AF00056003020625121F3B400302063190E64B
:1003BF00BBE024FE603B14606224FD601F146046A6
:1003CF0024066003020459E53D90E6B3F0000000F7
:1003DF00E53E90E6B4F0000000020631E54590E6F8
:1003EF00B3F0000000E54690E6B4F000000002060E
:1003FF0031E53F90E6B3F0000000E54090E6B4F041
:10040F00000000020631E54190E6B3F0000000E580
:10041F004290E6B4F000000002063190E6BAE0FF29
:10042F00121A5AAA06A9077B01EA496013EE90E651
:10043F00B3F0000000EF90E6B4F0000000020631C8
:10044F0090E6A0E04401F002063190E6A0E04401FE
:10045F00F0020631121E70020631121F1C02063105
:10046F00120003020631121E5E020631121F3D40BA
:10047F000302063190E6B8E0247F602B14603C2421
:10048F0002600302051AA23DE433FF25E0FFA256E6
:10049F00E4334F90E740F0E4A3F090E68AF090E663
:1004AF008B7402F0020631E490E740F0A3F090E67F
:1004BF008AF090E68B7402F002063190E6BCE054AD
:1004CF007EFF7E00E0D3948040067C007D01800497
:1004DF007C007D00EC4EFEED4F24E8F582741E3E4D
:1004EF00F583E493FF3395E0FEEF24A1FFEE34E6AE
:1004FF008F82F583E0540190E740F0E4A3F090E69B
:10050F008AF090E68B7402F002063190E6A0E04488
:10051F0001F0020631121F3F400302063190E6B888
:10052F00E024FE601D2402600302063190E6BAE06B
:10053F00B40105C23D02063190E6A0E04401F0028D
:10054F00063190E6BAE0705990E6BCE0547EFF7E2B
:10055F0000E0D3948040067C007D0180047C007D08
:10056F0000EC4EFEED4F24E8F582741E3EF583E459
:10057F0093FF3395E0FEEF24A1FFEE34E68F82F573
:10058F0083E054FEF090E6BCE05480FF1313135445
:10059F001FFFE0540F2F90E683F0E04420F0020697
:1005AF003190E6A0E04401F08078121F4150739023
:1005BF00E6B8E024FE60202402706790E6BAE0B44B
:1005CF000104D23D805C90E6BAE06402605490E68C
:1005DF00A0E04401F0804B90E6BCE0547EFF7E002B
:1005EF00E0D3948040067C007D0180047C007D0078
:1005FF00EC4EFEED4F24E8F582741E3EF583E49336
:10060F00FF3395E0FEEF24A1FFEE34E68F82F583F2
:10061F00E04401F0800C121F43500790E6A0E04425
:09062F0001F090E6A0E04480F027
:01063800229F
:03003300021F3376
:041F330053D8EF325E
:101EB600040103000505000301000200FFFFFEFE0A
:1008270090E682E04410F090E600E054E74410F0D0
:10083700D23D12144F90E61274E2F000000090E6E9
:1008470018740CF000000090E680E030E71090E6A6
:10085700207402F0000000E490E621F0800EE4909E
:10086700E620F000000090E6217440F0000000E46C
:1008770090E6CEF000000090E6CFF000000090E692
:10088700D0F000000090E6D1F000000090E6107470
:10089700A0F090E611F0000000E490E68DF0000073
:1008A70000F58690E601E04402F075B2FF75B4EFFB
:1008B70075B5FF75B6FF75A0E0E4F5B17C00EC9067
:1008C700E606F090E6077456F090E605E04406F079
:1008D700758C06E58954F84402F589538EF7D28C56
:1008E700D2A9752460908003E524F0AF5E121CB492
:1008F700D2068520B1755940D245752301752177F8
:1009070075227F752503908000E521F0908001E531
:1009170022F0908002E523F0908004E525F0908096
:1009270010E526F090E0947401F07D0C7F401219D9
:10093700CFE4FD7F701219CF7DD8E4FF1219CF7D68
:10094700407F101219CFD24B7D0C7F201219CF7D1B
:10095700327F501219CF7D1E7F301219CF7D327F23
:08096700601219CF121E4B2291
:10096F007F01121B01E4F55890E095F0A3F075306C
:10097F0002E5302410FD7FA0121BE390E096E02FDC
:10098F00F090E095E03400F00530E530C39420405E
:10099F00E07D107FA0121BE390E096E02FF090E037
:1009AF0095E03400F07D117FA0121BE3EFFE90E085
:1009BF0096E02400F090E095E03EF0E0F47003A3A1
:1009CF00E0F470387D157FA0121BE38F587D167FE2
:1009DF00A0121BE38F317D1A7FA0121BE38F327D94
:1009EF00247FA0121BE38F30E53013923AE530A23B
:1009FF00E2924EC41313540390E091F0E4F54CE5EA
:100A0F005814600D14601C14601E800075501880FF
:100A1F0025755030E53030E1047F0280027F018F71
:100A2F004C8013755010800E755046754C01D22DA9
:100A3F00908004E525F0E4F530E532C3948040035F
:100A4F00753001E5302450FFE53225E0FD1219CF56
:100A5F00E4F530E531C394804003753001E530246F
:100A6F0060FFE53125E0FD1219CFE4F532F531A233
:100A7F003A922A908004E525F0121B4F1217E612C6
:0B0A8F001EC612199E90E0ABEFF02293
:100C820012199E8F38205703020D2AE4FD90E0AB23
:100C9200E0FCC3953840027DFFE536547FFFBF0478
:100CA20017ED600C90E08DE0F4600DE004F0800838
:100CB20090E08DE0600214F0E5365407707CED6040
:100CC20030ECC39538F519E49400F518E519AE181F
:100CD2007803C333CE33CED8F9F5198E1890E08D50
:100CE200E0FB7E002519EE35187039EB2519FD80E1
:100CF20033ECFFE538C39FF519E49400F518E519C4
:100D0200AE187803C333CE33CED8F9F5198E1890C6
:100D1200E08DE0FFFBC3E5199BE51894005005C385
:100D2200EF9519FD8D5E801290E08DE0600CE53646
:100D320054077006E55E6002155EAF5E121CB4C217
:010D4200535D
:010D4300228D
:100D4400305D3F90E780E0F530A3E0FFC4540FF539
:100D540039E530B4A509E539901EB693B4FF051200
:100D64001D8B801CE539901EB693FF90E781E054FB
:100D74000F6F6004EFB4FE051211AE8003121F2E34
:100D8400C25D30542D854D53854E54C3E549955469
:100D9400E54895535006854853854954D3E5549402
:100DA40000E5539401400675530175540012138CE9
:100DB40080031213F130490F120B9BA24792475044
:100DC40021C249C247801BE52E6017E5492535FF3E
:100DD400E5483534FED3EF94FFEE940E5004D24927
:100DE400152E305306205C03120C8290E088E060DC
:050DF40003120EB822FD
:021F3700D322B3
:021F3900D322B1
:021F3B00D322AF
:0800030090E6BAE0F51BD322E0
:101E5E0090E740E51BF0E490E68AF090E68B04F004
:021E6E00D3227D
:081F1C0090E6BAE0F51AD322A9
:101E700090E740E51AF0E490E68AF090E68B04F0F3
:021E8000D3226B
:021F3D00D322AD
:021F3F00D322AB
:021F4100D322A9
:021F4300D322A7
:101D2B00C0E0C083C082D2415391EF90E65D740155
:081D3B00F0D082D083D0E03229
:101DA300C0E0C083C0825391EF90E65D7404F0D02D
:061DB30082D083D0E03273
:101DB900C0E0C083C0825391EF90E65D7402F0D019
:061DC90082D083D0E0325D
:10185E00C0E0C083C08290E680E030E70E853B3F5B
:10186E00853C40854341854442800C85433F8544F9
:10187E0040853B41853C425391EF90E65D7410F0FC
:07188E00D082D083D0E032CC
:101D4300C0E0C083C082D25E5391EF90E65D740819
:081D5300F0D082D083D0E03211
:10189500C0E0C083C08290E680E030E70E853B3F24
:1018A500853C40854341854442800C85433F8544C2
:1018B50040853B41853C425391EF90E65D7420F0B5
:0718C500D082D083D0E03295
:101D5B00C0E0C083C082D25D5391EF90E65F740800
:081D6B00F0D082D083D0E032F9
:01005200327B
:100FF6001201000200000040970D010101000102EC
:1010060000010A0600020000004001000902270054
:10101600010100A0000904000003FF00000007050D
:101026008102000200070501020002000705820294
:101036000002000009022700010100A000090400C7
:101046000003FF00000007058102400000070501BC
:101056000240000007058202400000000403090464
:101066000A0353004200490047002003550053007D
:10107600420046002D00430041004D00200045007F
:0D1086006E00670069006E0065000000004C
:101A2E0090E682E030E004E020E60B90E682E030C3
:101A3E00E119E030E71590E680E04401F07F147E76
:0C1A4E000012176690E680E054FEF022C3
:10000E0090E682E044C0F090E681F0438701000064
:04001E0000000022BC
:1019FF00305F0990E680E0440AF0800790E680E0CF
:101A0F004408F07FDC7E0512176690E65D74FFF0E8
:0F1A1F0090E65FF05391EF90E680E054F7F022ED
:021A5A00A907DA
:101A5C00AE4AAF4B8F828E83A3E064037017AD0147
:101A6C0019ED7001228F828E83E07C002FFDEC3EFD
:091A7C00FEAF0580DF7E007F0053
:011A8500223E
:101766008E188F1990E600E05418700DE518C31313
:10177600F518E51913F519801590E600E05418FFE1
:10178600BF100BE51925E0F519E51833F518E5192D
:101796001519AE18700215184E600512002280EE5B
:0117A6002220
:100022007400F58690FDA57C05A3E582458370F9F1
:0100320022AB
:0A1EFE00AE47C3E5369EC39F40F8CF
:011F080022B6
:1017E600E490800DF0908006F0A3740AF0908008D3
:1017F600E4F0A37409F090800AE4F0A304F0D22E7A
:10180600908004E525F0C22F7F0A121EFEE525F022
:0C181600D22FE525F0121EFE121EF22259
:101B4F00908000E521F0908001E522F0908003E580
:101B5F0024F0908002E523F0908003E524F090803C
:051B6F0004E525F02251
:101B0100E5A020E5047E0180027E008E30EF6005B5
:101B110053A0DF800743A020A23C9243E53070042C
:071B21007F0180027F00221A
:10123700C24590E785E0540CF530E030E42490E7B0
:1012470083E0F55CA3E0F560E55954F34404F559F0
:10125700D24FE5307043C24FE55954F34408F5596E
:10126700803790E782E0F52FA3E0F533A3E0F53A66
:10127700E55954FC4401F559D251E530700AC25181
:10128700E55954FC4402F559A23C9243303C0AAF5D
:1012970036EF653660FB121DFBE530B40403121709
:0E12A700A7E530B408031216DFD245121F2946
:0112B5002216
:10190300C24590E782E030E014E559540C6020535F
:1019130059F3304F1A1216DF43590C8012E559540C
:1019230003600C5359FC3051061216DF435903D29E
:0519330045121F2922EE
:1015FE00C2AF90E782E030E407E0A2E3925C80376E
:10160E00C25CC25790E783E090E0ABF090E782E0D7
:10161E0030E10BA3E0F55EE490E08DF0801990E7E9
:10162E0082E030E00CD25790E784E090E08DF080BD
:0D163E000690E08D7401F0D2AF121F29223A
:101B7400E490E09AF030570204F090E0ABE090E09B
:101B84009BF0A3E538F0A37480F0A3E55EF075390B
:051B940035121CD422F3
:101C0700C2AF90E782E0F531A3E0F52CA3E0F5320F
:101C1700A3E0F52DC255A3E030E002D255D2AF12B2
:031C27001F292250
:1018220090E783E07032A3E0702E90E786E0C394E5
:10183200014025E0D39407501FE54CB40104E0B405
:101842000716E54CB4020890E786E064046009904C
:0B185200E786E0F55D120F58121F2919
:01185D002268
:1018CC0090E782E02410547FF530E030E71690E783
:1018DC0084E0FFAD30121BE390E09AEFF0753971A4
:1018EC00121CD42290E784E0FF90E783E0FBAD303C
:0718FC00121BBE121F29227E
:1014AA00121F2990E782E0FFC454C0F539E4F555CC
:1014BA00E539B44004C2058015E5397004D20580C7
:1014CA000DE539B4800575553F800375550FE5590B
:1014DA00543F4539F5598520B190E782E05403F528
:1014EA0039B401031217A7E539B402031216DFE56E
:0814FA0039B40303121EC622DF
:1012B600C2AFE55954CF90E09AF0305A04E044109A
:1012C600F030590790E09AE04420F030580790E05B
:1012D6009AE04430F090E09B7401F0E5316004E060
:1012E6004410F0E52C600790E09BE04420F0E532E6
:1012F600600790E09BE04440F0E52D600790E09B9E
:10130600E04480F0E561540790E09CF0205204E050
:0C1316004408F0D2AF753993121CD422A9
:0C004600E490E09AF07539B1121CD4224D
:10172300121F29C23F90E782E030E002D23F90E7E8
:1017330082E054186023E54F5403901EE493FFE5C1
:101743002454F0FEEF4EF52490E782E030E40DD20E
:101753003990E092E537F080035324F0908003E55D
:0317630024F0224D
:0D003600070F0606070D1E0A07070A010A3C
:101C7000305204054F8002154FE54F5403901EE487
:101C800093FFE52454F0FEEF4EF524908003E52405
:021C9000F02240
:0F1EC600C24A755D06120F58755D07120F58223C
:1017A700C24A305804D25B8033C25B305A2ED259BA
:1017B700C25AE54F5403901EE493FFE52454F0FE0C
:1017C700EF4EF524908003E524F0E4F556F557E550
:0F17D7004CB402047F0280027F078F5BD24A224C
:1016DF00C24A305904D2508038C250304433D258A5
:1016EF00C244C2078520B1E54F5403901EE493FF17
:1016FF00E52454F0FEEF4EF524908003E524F0E44A
:10170F00F556F557E54CB402047F0280027F078F30
:04171F005BD24A222D
:03000B000200569A
:10005600C0E0C0F0C083C082C0D075D000C000C070
:0D00660001C002C003C004C005C006C007F1
:1000730090E08CE004F0304315E030E011B208B2B8
:1000830009908000E521F0B208B209E521F090E083
:100093008CE0540F60030202470547304A7420592D
:1000A3000330585B20580CE557700890E08EE064ED
:1000B30009705FE5567044121C70E54C6008E55703
:1000C300B40203D55B020557E55790003693F55606
:1000D300E5576406703C305914D244C25920520289
:1000E300D2078520B130502A1216DF8025D25AC29A
:1000F30058B252305B1C1217A7801715568013E5B0
:1001030056600FD5560C2039095324F0908003E52F
:1001130024F0303F129080007474F0751810D518D5
:10012300FD908000E521F090E08EE004F0E0640AA9
:100133006003020247F00536E53670020537D253F5
:100143002045030201D8E5595403FFBF0108205A93
:10015300033044020559E5595403FFBF021DAF3A6A
:10016300153AEF7016AF331533EF700FAF2F152F0E
:10017300EF70083051101216DF0559E5595403FF8B
:10018300BF030E305A0B303C05C24312132253599E
:10019300FCE559540CFFBF040C204403305A067489
:1001A300042559F559E559540CFFBF081AAF6015DA
:1001B30060EF7013AF5C155CEF700C304F141216C8
:1001C300DF74042559F559E559540CFFBF0C06306B
:1001D3005A035359F3305506E536540F70327518E8
:1001E30000E53160054318041531E52C600543181B
:1001F30008152CE53260054318011532E52D60051D
:10020300431802152DE52054F04518F5208520B13B
:10021300E555600655367002B2058520B1303924A4
:1002230020592120581EE562B5611990E092E0FF44
:10023300C3E5379FD39402400BC2395324F0908017
:1002430003E524F090E08CE0540F6408600302039C
:1002530064204803020364E562656170030203647A
:10026300900036E493B5640EE562B407095324F0B5
:10027300908003E524F0AF641564EF600302036428
:10028300055AE55AB4010A90003EE493F56402036B
:1002930061E55AB4020990003FE493F5648028E5D0
:1002A3005A64037027E562B4071630460AE563B45F
:1002B30001057564788010900040E493F56480072D
:1002C300900041E493F564B252020361E55A640677
:1002D3007026F555C2058520B1856261A238925218
:1002E300D24AE56164077079756102756202C2588A
:1002F300C259C244D25A8069E55A6405603BE5623B
:100303006407704A204647E563D394045040E54FA1
:100313005403FF90E091E06F703420461CE54CB429
:10032300020575630F800CE54C70047F0C80027F1F
:10033300048F63D246B252801B2039095324F090B4
:100343008003E524F090003CE493F5648013156387
:10035300E56360F1755A0190003EE493F564121C65
:010363007029
:10036400D007D006D005D004D003D002D001D000ED
:0B037400D0D0D082D083D0F0D0E03297
:100B9B00E55F24F97003020C4F24076003020C81FC
:100BAB00204903020C81C2AFC22F908004E525F0CF
:100BBB007F05121F24C22E908004E525F0304B19BF
:100BCB00303C0CC24390E094E0FF121E82801F90D9
:100BDB00E094E0FF121D108015303A0A90E094E08B
:100BEB00FF121DCF800890E094E0FF121CF390E001
:100BFB0095E0FEA3E0FF8E1CF51D90E08FE0FCA3BB
:100C0B00E0FDEF2DFBEE3CCB2535F51DEB3534F53B
:100C1B001C908006F0A3E51DF0C39FF51DE51C9EFF
:100C2B00F51C908008F0A3E51DF090800AECF0A372
:100C3B00EDF0D22E908004E525F0D22FE525F0D2F1
:100C4B00AF755F07121ED5502DE5352549F549E5E2
:100C5B00343548F548E52E6018E5492535FFE5485C
:100C6B003534FED3EF94FFEE940E5005152E020B88
:060C7B00B1E4F55FD24771
:010C81002250
:101AB100EE2F6020D3121D73908001E5220EC2E546
:101AC100F0C2E3F06403F0D2E3F06403F0DFF2DE8E
:081AD100F0E522F0C3021D73D1
:101CF300908001E522C2E5F0C2E3F06403F030E333
:0D1D030003C2E3F0D2E3F0DFF5E522F022A9
:101DCF00908001E522C2E4F06403C2E4F0D2E4F0B3
:061DDF00DFF8E522F0220E
:101B9900EF2E601DD3121D73908001E5220E64188B
:101BA900F06403F06418F06403F0DFF2DEF0E5227C
:051BB900F0C3021D73E2
:101DE500908002E523D2E3F07805121F09C2E3F0E3
:061DF500121938C23E2263
:10193800908001E5227D7D7C0B7B10C2AF6BF06C43
:10194800F06BF06CF06BF06CF06BF06CF06BF06CB3
:10195800F06BF06CF06BF06CF06BF06CF0DDDED2DD
:04196800AFD23E229A
:0A1F0900D80008D8000800D8F7221D
:051F2400EFF8021F09A7
:060DF900F0780A021F0958
:101D1000908000E521C2E0120DF96403120DF96410
:0B1D200003120DF9DFEFD2E0020DF915
:091F13007E007F557C00021502DE
:10150200C243EE2F604A0ED3121D73303C0090800E
:1015120000E521203C05C2E0120DF96403120DF929
:101522006403120DF9203C05D2E0120DF9EFBE0161
:1015320005C3940440045CB40112C3121D73A95084
:101542007840121F09D9F9DFBEDEBC22DFC3DEC13B
:07155200908002E523F02266
:101C2A00EE2F601E0E908000E521C2E0120DF964CD
:101C3A0003120DF96403120DF9D2E0120DF9DFEA6D
:031C4A00DEE822AF
:101A8600A2439240C243121322EE2F60140E90809E
:101A960000E5216403120DF96403120DF9DFF4DE8B
:0B1AA600F2121DFBC23BA24092432243
:101DFB00E523908002D2E4F07828121F09C2E4F0A8
:051E0B007828021F0908
:10132200D3121D73908000E521C2E1F07817121FDD
:1013320009204E25D2E0C2AFF0E523908002C2E040
:10134200F0D2AF780C121F09D2E0C2AFF090800049
:10135200E521C2E1F0D2AF8023D231E526908010A0
:10136200F0E523908002D2E1F0780C121F09C2E16D
:10137200F0C231E526908010F09080007812121FA2
:0A13820009E521F0D23BC3021D7300
:101E8200908000E5216403120DF96403120DF9DF5D
:021E9200F42238
:0C1EF200908003E524C2E6F0D2E6F02266
:101D7300E5254004D2E68002C2E6908004F0F52512
:081D83004001227805021F094E
:0F1ED500C2AF908000E0E0D330E101C3D2AF2272
:1011AE0090E781E054F0B4F0061215AE021230B49E
:1011BE000005121237806BB410051219038063B448
:1011CE0020051215FE805BB43005121B748053B4DB
:1011DE004005121C07804BB450051218228043B4F0
:1011EE006005121E94803BB470051218CC8033B487
:1011FE0080051214AA802BB490051212B68023B467
:10120E00A005121723801BB4B0051200468013B43C
:10121E00C005121D8B800BB4D005121D8B800312DE
:09122E000A9A90E68D7400F0228A
:051F29007406021D8D8D
:051F2E007415021D8D79
:101D8B007418C25490E098858351858252F0A374E5
:081D9B0000F0F54D754E012228
:101CD400C25490E09885835185825274A5F0A3E59F
:0F1CE40039F0540F240354FE03F54E754D0022C2
:101E940090E09A7462F5397402F0A37412F0021C93
:011EA400D469
:101E25007E007F0090E09A74E2F539EEF0A3EFF0C2
:031E3500021CD4B8
:1015AE00A3E0A3B4030302169AB40A03021698B476
:1015BE000003021EA5B4010302169AB4020302161A
:1015CE009CB40403021AD9B4050302164BB40603E5
:1015DE00021559B4070302196CB40805E0FF021E88
:1015EE0038B4090BE0FFA3E0FD1219CF021F292228
:101E3800121B0190E09A74F2F5397408F0A3EFF0E0
:031E4800021CD4A5
:101EA500121B28E0F534FEA3E0F535FF052E021FD1
:011EB5002903
:10169800052E052E121B28E0FEF534A3E0FFF535D4
:1016A800C3E5499420E5489400500A204907E4B569
:1016B8002E03021D8BD25490E782E0B4030280030C
:1016C800B40A0F7C0090E787E0FD14252EF52E1252
:0716D8001C4D8E4D8F4E22C8
:101AD9007400F52EE5484549601B30490F90800098
:101AE90078007900E030E104D8FAD9F8121EF275CD
:081AF9004800754900021F2995
:10164B00121B28E0FCA3E0FDA3E0F8A3E0F9A3E064
:10165B00FAA3E0FB90E097ECF0E525D2E1D2E0BCF9
:10166B000306C2E0D2E18007BC0204C2E1D2E0F57E
:10167B0025908004F090E094EDF090E095E8F0A3D5
:0D168B00E9F090E08FEAF0A3EBF0021F29D8
:10196C0090E786E0FEA3E0FF90E783E0B4000D3043
:10197C003C05121A868010121C2A800B303A051274
:10198C001DE58003121AB1D230E526908010F002CA
:02199C001F2901
:10155900C230E526908010F090E784E0FF7E00A37A
:10156900A3A3E0FCA3E0FD121C4D90E783E0B400C7
:1015790020303C08203B05C2431213227C0790E728
:1015890081E090E789540FB40802E0FC121502804B
:1015990011303A0B203E03121938121B998003129D
:0515A9001AB1021F2928
:101B280090E783E0B40009204B19D24B7D40800731
:101B3800304B10C24B7D207F101219CF7DD87F000B
:071B48001219CF90E784227F
:100A9A00A3E0A3C3B400028053B401028028B402C5
:100AAA0002804AB40302801FB40403021E25B4055F
:100ABA0002806DB40603020B51B40703020B5AB449
:100ACA000803020B8B22D3120B1F90E786500CE50A
:100ADA0084F8E0A3F608DFFA021F29C2AFE0A305F3
:100AEA0086F0A30586DFF6D2AF021F29D3120B1FA9
:100AFA0090E09A7539E8500CE584F8E608F0A3DF2F
:100B0A00FA021CD4C2AF0586E0A30586F0A3DFF67D
:100B1A00D2AF021CD4E0FFA3E0F584A3E0F585225E
:100B2A00E0900B3BF0900B48F090E784E0FFC2AFF7
:100B3A00E5A090E09AF05F90E785FFE04FF5A0D23C
:100B4A00AF7539E1021CD4121B4F1217E6021F2996
:100B5A00E0B40402801F5403C2AFF54F24E4F582C7
:100B6A00E4341EF583E493F8E52454F048F5249020
:100B7A008003F0D2AF90E09AE54FF07539E1021C9C
:100B8A00D4E0C24C6008D24C740190E088F0021F95
:010B9A002931
:101E1000C390E6787800E020E003D8FA2220E2FCC4
:051E200030E1F9D322BE
:101C9200C2AF90E6787480F090E679EF54FEF012CD
:101CA2001E10500D7400F090E679EDF0121E1050E7
:021CB20000220E
:101BBE00121C92500990E679EBF0121E10C390E6BB
:101BCE00787440F0500890E679E0FF90E678E020D7
:051BDE00E6FCD2AF227D
:101BE300121C92501B7480F090E679EF54FE44016E
:101BF300F0121E10500A7420F090E679E0121E10C5
:041C0300D3021BCC21
:101CB400C2A3C2A779C77B027A08E933F9C2A2504A
:101CC40002D2A2D2A3C2A3DAF1EFF9DBEBD2A722AC
:10199E00C2A3C2A779A77A08E933F9C2A25002D22C
:1019AE00A2D2A3C2A3DAF17840000000D8FB7A08D5
:1019BE007F00C372A4EF33FFD2A3C2A3DAF4D2A77F
:0119CE0022F6
:1019CF00C2AFD2A0E520D2E4F5B1F520EFF97B024A
:1019DF007A08E933F9C2A15002D2A1C2A0D2A0DA8B
:1019EF00F1EDF9DBEBE520C2E4F520F5B1D2AF2242
:1013F10090E6A2E020E108E54E7005E54D7001227E
:101401007820E54EC398E54D94005002A84EE8F9C6
:1014110085528485518574C0F59B74E7F59A90E6F1
:101421007BC2AF0586E0A30586F00586E0A30586AD
:10143100F0D8F0D2AF90E68FE929F0858452858506
:0E14410051E54EC399F54EE54D9400F54D2250
:10138C00000000E5BB20E70122304D1590E6D0E0CF
:10139C00700E90E6D1E07008C24D90E6487402F0F1
:1013AC0022E5547005E553700122C3E55425549091
:1013BC00E6D1F0000000E553355390E6D0F074040C
:1013CC00F5BBC3E5499554F549E5489553F548C334
:1013DC00E54E9554F54EE54D9553F54D7006E54E9D
:0513EC007002D24D2249
:010DFF0032C1
:101093006080E00008013F01010101070100030036
:1010A30000001000FFFEFEFFFFFFFFFF010900002D
:1010B300002D123F0803013F010101070102040152
:1010C30000000000FFFDFFFFFFFFFFFF09091212F1
:1010D300002D363F0E03013F0101360701000201D7
:1010E30000001100FFFEFEFEFFFFFFFF00091212CA
:1010F300002D123F0803013F010101070102000116
:1011030000000000FFFDFFFFFFFFFFFF09091212B0
:0E111300002D363F47E080800000FF06E4110B
:10144F0090E60174CAF090E6F574FFF090E080E04A
:10145F0090E6F3F090E081E090E6C3F090E082E058
:10146F0090E6C1F090E083E090E6C2F090E085E076
:10147F0090E6C0F090E086E090E6F4F075AF077468
:10148F00E0F59A7400F59B759DE4E4F59EFF90E6F8
:0A149F007BE090E67CF00FBF80F4C4
:0114A9002220
:100F5800C248E55DB4061BE5616003020FF37561E5
:100F680006303903020FF35324F0908003E524F090
:100F78008079E5616075655D6071855D62E55D64D8
:100F8800076005E561B4060C756207D252C2387570
:100F98006338802CA2529238C252C3E55D9561F540
:100FA8006330E706F404F563D252E54C700AE56352
:100FB80075F00CA4F5638008E56375F00EA4F5637D
:100FC800C246755503E4F56190003D93F564E4F578
:100FD8005AE54F5403901EE493FFE52454F0FEEFC6
:0E0FE8004EF524908003E524F0C24AD2482240
:03004300020E00AA
:03005300020E009A
:100E0000021D2B00021DB900021DA300021D43009C
:100E100002185E0002189500020052000200520003
:100E2000020DFF000200520002005200021D5B0092
:100E30000200520002005200020052000200520062
:100E40000200520002005200020052000200520052
:100E50000200520002005200020052000200520042
:100E60000200520002005200020052000200520032
:100E70000200520002005200020052000200520022
:100E80000200520002005200020052000200520012
:100E90000200520002005200020052000200520002
:100EA00002005200020052000200520002005200F2
:080EB000020052000200520092
:101E4B0090E0A87448F090E0A97430F090E0AA7488
:031E5B0050F02222
:100EB80090E087E0FF90E08CE0FEC39F90E089F02F
:100EC80090E088E0FFB4010F90E087EEF0054F90C6
:100ED800E088E004F08060EFB4021C90E0A8E0FD38
:100EE80090E089E0C39D404F90E087EEF0154F9069
:100EF800E088E004F08040EFB4031C90E0A9E0FF34
:100F080090E089E0C39F402F90E087EEF0054F9076
:100F1800E088E004F0802090E0AAE0FF90E089E01B
:100F2800C39F4013204C07E490E088F08009121F0B
:100F38001390E0887401F0E54F5403901EE493FF8A
:100F4800E52454F0FEEF4EF524908003E524F022CA
:03000000021122C8
:0C112200787FE4F6D8FD75816402116945
:101C4D00EF8DF0A4A8F0CF8CF0A428CE8DF0A42EAB
:021C5D00FE2265
:101C5F00EB9FF5F0EA9E42F0E99D42F0E89C45F0DB
:011C6F002252
:10112E00020639E493A3F8E493A34003F68001F298
:10113E0008DFF48029E493A3F85407240CC8C333C2
:10114E00C4540F4420C8834004F456800146F6DF91
:10115E00E4800B0102040810204080901093E47E7E
:10116E00019360BCA3FF543F30E509541FFEE49386
:10117E00A360010ECF54C025E060A840B8E493A34D
:10118E00FAE493A3F8E493A3C8C582C8CAC583CA78
:10119E00F0A3C8C582C8CAC583CADFE9DEE780BE30
:0111210000CD
:00000001FF
